:020000020000FC
:100000000FEF0DBF08E00EBF3F065B4F666D7D072B
:100010007F67777F395E797100E80093610004E0C3
:10002000009361000E94420000E007B90FEF08B999
:100030000FEF0AB900E00BB90FEF04B900E005B902
:1000400000E00093C10050E00E944F0005B300FFA4
:10005000FDCFA89A04E606BD43954A30B9F7442778
:100060000E94470006B1101789F30E945B0006B199
:10007000101761F3102F10FF0E944B0011FF0E9418
:100080005500E4CF03E005BD04E606BD08953395B1
:100090003F7035B908955395503108F050E0F0E0C5
:1000A000E8E0E50F74917BB90895503011F45FE0FA
:1000B000F6CF5A95F4CF2FEF2A952030E9F72FEF9E
:1000C0002A952030E9F72FEF2A952030E9F7089597
:00000001FF
