:020000020000FC
:100000000FEF0DBF08E00EBF00E80093610004E0B1
:10001000009361000E942E0000E007B90FEF08B9BD
:100020000FEF0AB900E00BB90FEF04B900E005B912
:1000300000E00093C10050E00E94420080E00E9476
:10004000330005B300FFFBCFA89A04E606BD439535
:100050004436A9F744270E945000F1CF03E005BDC4
:1000600004E606BD089506B1101761F00E94620013
:1000700006B1101721F3102F10FD0AC0539550310F
:1000800008F050E0F0E0EEEDE50F74917BB90895D3
:1000900011FDF8CF503011F45FE0F4CF5A95F2CF54
:1000A000531721F033953F7035B9089584FF04C08C
:1000B0008F7E85B93327089584FD02C0806185B99C
:1000C0003327BDCF2FEF2A952030E9F72FEF2A9560
:1000D0002030E9F72FEF2A952030E9F708953F0601
:0E00E0005B4F666D7D077F67777F395E7971B4
:00000001FF
